:100000000C9418070C9435070C9435070C9435079D
:100010000C9435070C9435070C9435070C94350770
:100020000C9435070C9435070C94C1300C94762F42
:100030000C949A290C9435070C9435070C943507C9
:100040000C9435070C9435070C9435070C94350740
:100050000C9435070C9428290C9435070C9435071B
:100060000C9435070C9435070C9435070C94350720
:100070000C9435070C9435070C9435070C94350710
:100080000C9435070C9435070C9435070C94350700
:100090000C9435070C9435070C9435070C943507F0
:1000A0000C9435070C9435070C943507FA0B030CA8
:1000B000080C0D0C120C170C1C0C210C260C2B0C14
:1000C000300CC409370C3A0C3D0C400C430CC609EB
:1000D000460C4B0CE60CE60C200D200D6B0D870D2D
:1000E0004F0FAF0FC90DA70EB80EB80EFD100011BF
:1000F0000311061109110C110F112A132F133913B3
:100100002D13321337133513A715C115EC152A1605
:100110006C16B316B616B916BC16BF16C216C5169F
:10012000C816CB16CE16D316D616D916DE16E3167B
:10013000E616E9161E264526B3274526B3278D2643
:10014000B026B3276C2780275D2C5D2C702C702C7B
:10015000662C702C702C702C5D2C5D2C6B2C702CF4
:10016000702C6B2C29002B41E200E100E000000024
:100170001E00140004001D00E3004E001F001A00C2
:1001800016001B002D0028002000080007000600B4
:100190002E002C00210015000900190049024B0017
:1001A000220017000A00050000002A003544015310
:1001B0000000000F00004C004646045300000007FA
:1001C0000000500023001C000B00110000004F0035
:1001D000240018000D0010002D00520025000C0016
:1001E0000E0036002E002800260012000F003700F7
:1001F0002F002C002700130033423800300051003C
:100200002A0031412800E500347100002900010076
:1002100001000100010000003A001E02200222023B
:1002200001000E5D3B001F02210223020100C95C98
:100230003C002F0226022F000100CA5C3D00300264
:100240002702300049000D5D3E00310235003502C5
:100250000000C35C010001000000010000000C5D13
:1002600001000100000001000000C25C3F0024000A
:1002700021001E0000000B5D4000250022001F0031
:100280002700010041002600230020003700C55C44
:1002900042002D0024022D022602C65C43002E00DF
:1002A0002E023800270201000100010001000100B8
:1002B0000100000001000100010001000100000038
:1002C0000100010001000100085D010001000100C2
:1002D000F2000100010001000100F000F100010046
:1002E000F400010001000100F3000100F50001002D
:1002F0000100010001000100000001001350040092
:1003000000000100000001000100010000000100E8
:1003100000000100010001000100010000000100D7
:100320000100010001000100A9000100010001001D
:100330000100AC00AA00B600010001000100AB0002
:10034000A8000100010001000100010001000100FE
:10035000005C0100AE00010001000000010001008E
:100360000100010001000000010001000100010086
:100370000100010001000100010001000100010075
:100380000100010001000100010001000100010065
:100390000100010001000100010001000100010055
:1003A000000001001050105000000100000001008A
:1003B0000100010000000100000001000100010037
:1003C0000100010000000100010001000100010026
:1003D0000100010001000100010001000100010015
:1003E0000100010001000100010001000100010005
:1003F00001000100010001000100010001000100F5
:1004000001000000055D0100010001000100000085
:10041000065D035D0100010065000100075D045DEC
:100420000100010001000100010001000100B20013
:100430000100010001000100010001000F5D010049
:1004400001000100010001000000010001000100A5
:100450000000010000000100010001000000010097
:100460000000010001004A0050004D0000000100A2
:1004700001005200280051000100010001004B0062
:100480004F004E00010001000100010001004C007E
:100490000100010001000100010001000100010054
:1004A0000100010001000100010000000100010045
:1004B00001000100010000000100140004001D0003
:1004C0000100010001001A0015001B0001000100DD
:1004D00001000900160006000100010001001300E0
:1004E000170019000100010001000A0007000500C3
:1004F00000000100010001000000010000000100F7
:1005000001000100000001000000010001000D00D9
:100510000B000E000000010001000F001100100090
:100520000100010001001800080036000100010070
:1005300001001C000C003700010001000100330025
:10054000120038000100010001000100010001005B
:10055000010000001050010001000100A600000091
:1005600011500100010001000100095D125001005D
:10057000010001000100BD00135001000100010055
:100580000100BE0014500100010001000100010043
:1005900015500100010001000000010001000100F0
:1005A0000000010000000100010001000000010046
:1005B0000000010001000100010001000000010035
:1005C0000100010001000100010001000100010023
:1005D0000100010001000100010001000100010013
:1005E0000100010001000100010001000100010003
:1005F000005C085D01000100010000000000000037
:1006000000000000000000000000000000000000EA
:100610007E0F00D4FFFFFFC700000078000000003D
:10062000000000002A2B280000000000000000004D
:100630000000000000000029000000002C1E3420F3
:10064000212224342627252E362D3738271E1F2019
:100650002122232425263333362E37381F0405065E
:100660000708090A0B0C0D0E0F10111213141516A2
:100670001718191A1B1C1D2F3130232D35040506A0
:100680000708090A0B0C0D0E0F1011121314151682
:100690001718191A1B1C1D2F3130354C010165012B
:1006A000043130307C010116000000000000000021
:1006B000000000000000000000000000000000003A
:1006C000000000000000000000000000000000002A
:1006D000000000000000000000000000000000001A
:1006E000000000000000000000000000000000000A
:1006F00000000000000000000000000000000000FA
:1007000000000000000000000000000000000000E9
:1007100000000000000000000000000000000000D9
:1007200000000000000000000000000000000000C9
:1007300000000000000000000000000000000000B9
:1007400000000000000000000000000000000000A9
:100750000000000000000000000000000000000099
:100760000000000000000000000000000000000089
:100770000000000000000000000000000000000079
:100780000000000000000000000000000000000069
:100790000000000000000000000000000000000059
:1007A0000000000000000000000000000000000049
:1007B0000000000000000000000000000000000039
:1007C0000000000000000000000000000000000029
:1007D0000000000000000000000000000000000019
:1007E0000000000000000000000000000000000009
:1007F0000000000000000000000000008DFFE98DF7
:10080000FFE90000008DFFE98DFFE90EFFFF00000A
:1008100000000000000000000000000000000000D8
:100820000000000000000EFFFF00000000000000BC
:1008300000000EFFFF0EFFFF0EFFFF000000000094
:10084000000000000000000000000000000EFFFF9C
:100850000EFFFF00000021FFFFD041F7D041F7D08D
:1008600041F7D041F7D041F7D041F7D041F7D0411F
:10087000F7D041F7D041F7D041F7D041F7D041F759
:10088000D041F7D041F7D041F7D041F7D041F7D070
:1008900041F7D041F7D041F7D041F7D041F7D041EF
:1008A000F7D041F7D041F7D041F7D041F7D041F729
:1008B000D041F7D041F7D041F700CCFFD041F7D07D
:1008C00041F7D041F700CCFF00CCFF00CCFFD04176
:1008D000F7D041F7D041F7D041F7D041F7D041F7F9
:1008E000D041F7D041F7D041F75BFFFF5BFFFF5BE3
:1008F000FFFF5BFFFF5BFFFF00B7EE00B7EE00B747
:10090000EE5BFFFF5BFFFF00B7EE00B7EE00B7EE58
:100910005BFFFF5BFFFF00B7EE00B7EE00B7EE0036
:10092000B7EE5BFFFF5BFFFF5BFFFF5BFFFF5BFF64
:10093000FF5BFFFF5BFFFF5BFFFF1FFFFF1FFFFF73
:100940005BFFFF5BFFFF5BFFFF00B7EE00B7EE5BF7
:10095000FFFF5BFFFF5BFFFF5BFFFF5BFFFF5BFFDB
:10096000FF5BFFFF86FFD55BFFFF5BFFFF86FFD5C9
:100970005BFFFF5BFFFF86FFD500FFFF00FFFF006F
:10098000FFFF00FFFF00FFFF00FFFF00FFFF00FF72
:10099000FF00FFFF00FFFF00FFFF00FFFF00FFFF62
:1009A00000FFFF00FFFF00FFFF00FFFF00FFFF0051
:1009B000FFFF00FFFF00FFFF00FFFF00FFFF00FF42
:1009C000FF00FFFF00FFFF00FFFF00FFFF00FFFF32
:1009D00000FFFF00FFFF00FFFF00FFFF00FFFF0021
:1009E000FFFF00FFFF00FFFF00FFFF00FFFF00FF12
:1009F000FF00FFFF00FFFF00FFFF00FFFF00FFFF02
:100A000000FFFF00FFFF00FFFF2FFFFF2FFFFF2F63
:100A1000FFFF2FFFFF2FFFFF2FFFFF2FFFFF2FFFF6
:100A2000FF2FFFFF2FFFFF2FFFFF2FFFFF2FFFFFE6
:100A30002FFFFF2FFFFF2FFFFF2FFFFF2FFFFF2FA6
:100A4000FFFF2FFFFF2FFFFF2FFFFF2FFFFF2FFFC6
:100A5000FF2FFFFF2FFFFF2FFFFF2FFFFF2FFFFFB6
:100A60002FFFFF2FFFFF2FFFFF2FFFFF2FFFFF2F76
:100A7000FFFF2FFFFF2FFFFF2FFFFF2FFFFF2FFF96
:100A8000FF2FFFFF2FFFFF2FFFFF2FFFFF2FFFFF86
:100A90002FFFFF2FFFFF2FFFFF00010101010101C9
:100AA0000101010202020202020202020303030325
:100AB00003030303040404040404040505050505F5
:100AC00006060606060707070707080808080909B3
:100AD00009090A0A0A0B0B0B0C0C0C0D0D0D0E0E5E
:100AE0000E0F0F0F101011111112121313141415F1
:100AF0001516161717181819191A1A1B1B1C1D1D65
:100B00001E1E1F20202122222324242526262728BA
:100B100029292A2B2C2D2D2E2F30313232333435EA
:100B2000363738393A3B3C3D3E3F404142434445ED
:100B3000464748494A4C4D4E4F50515354555658CC
:100B4000595A5B5D5E5F616264656668696B6C6D76
:100B50006F7072737577787A7B7D7E8082838587EC
:100B6000888A8C8E8F91939596989A9C9EA0A2A32A
:100B7000A5A7A9ABADAFB1B3B5B7BABCBEC0C2C42F
:100B8000C6C9CBCDCFD1D4D6D8DBDDDFE2E4E7E9EF
:100B9000EBEEF0F3F5F8FAFDFF0A000000000003A9
:100BA00006B200080001000000A8000800020002D0
:100BB00000A0001400030057494E555342000000A6
:100BC000000000000000008400040007002A004428
:100BD000006500760069006300650049006E0074DE
:100BE0000065007200660061006300650047005503
:100BF00000490044007300000050007B00390044AD
:100C0000004200370046003100460044002D003706
:100C1000004500370041002D00340030003000381E
:100C2000002D0039003300360042002D003600420E
:100C300000410036004300310039004100330030EC
:100C400000380063007D00000000001B0301636F9B
:100C50006E6669677572652E6572676F646F782D51
:100C6000657A2E636F6D0005010902A101850209F5
:100C700001A1000509190129051500250195057532
:100C800001810295017503810105010930093115C2
:100C900081257F95027508810609381581257F9584
:100CA0000175088106050C0A38021581257F95011A
:100CB00075088106C0C005010980A10185031A815C
:100CC000002A83001601002603009501751081009B
:100CD000C0050C0901A10185041A01002A9C021615
:100CE0000100269C02950175108100C005010906CE
:100CF000A1018505050719E029E7150025019508DB
:100D0000750181020507190029EF1500250195F0ED
:100D100075018102050819012905950575019102E2
:100D2000950175039101C005010906A10105071987
:100D3000E029E715002501950875018102950175E7
:100D40000881010507190029FF150026FF009506F7
:100D5000750881000508190129059505750191029D
:100D6000950175039101C009025200030100A0FA28
:100D70000904000001030101000921110100012201
:100D800040000705810308000A090401000103006F
:100D9000000009211101000122C000070582032083
:100DA000000A0904020002FF000000070583034057
:100DB00000050705040340000512011002000000B1
:100DC00008EDFE07130100010203010403300000D7
:100DD0000016034500720067006F0064006F007822
:100DE00000200045005A00000008035A005300414B
:100DF00000000004030904050F3900021C1005005F
:100E0000DF60DDD88945C74C9CD2659D9E648A9F72
:100E100000000306B20045001810050038B608347B
:100E2000A909A0478BFDA0768815B6650001420090
:100E300011241FBECFEFDAE0DEBFCDBF13E0A0E08C
:100E4000B1E0E2EFFEE602C005900D92A23BB107D1
:100E5000D9F729E0A2EBB3E001C01D92A036B2079A
:100E6000E1F70E9407200C9477370C9400004F9212
:100E70005F926F927F928F929F92AF92BF92CF922A
:100E8000DF92EF92FF920F931F93CF93DF93CDB733
:100E9000DEB72A970FB6F894DEBF0FBECDBFFC01B8
:100EA0000081F18083819481892B39F01FEFF11249
:100EB00006C091E00F3F19F403C091E001C090E03B
:100EC00090FF02C00C94CF0F6F0185E0DE011696F3
:100ED00001900D928A95E1F7F60122818E819F8122
:100EE000222349F00E94412B182F682F8E819F8169
:100EF0000E94BB2B03C00E948E2B182F24E5129F4B
:100F0000F001112436E0F39EE00DF11D1124E00FF5
:100F1000F11DEE0FFF1FEC59FE4F059114918091CA
:100F2000B206811145C0F6018281811190C0043062
:100F3000FDE51F0719F188F403303DE5130709F0BB
:100F400086C00E94242F0E94462C82EB93E090934F
:100F5000AD088093AC0881E01CC006308DE5180711
:100F6000E1F007309DE5190709F071C060910601B5
:100F7000709107014FEF8CEA96E016C00E94242F73
:100F80000E94462C8CEA96E09093AD088093AC08C2
:100F900082E08093B2060C94CF0F609108017091AB
:100FA000090141E082EB93E00E94AB1C0C94CF0F4F
:100FB0000530EDE51E07A1F5F6019281992311F4A4
:100FC0000C94CF0F813039F0823039F58091AC0824
:100FD0009091AD081AC08091AC089091AD08F3E0F3
:100FE000823B9F0739F0FC0136972281222311F0C2
:100FF000CF01F5CF90930901809308010EC0FC0149
:1010000036962281222329F0CF0106E08C3A900700
:10101000B1F790930701809306011092B206BFC703
:10102000813059F0823099F4609108017091090182
:1010300096014FEF8CEA96E008C06091060170912E
:101040000701960141E082EB93E00E94D624809153
:101050007B08882309F49EC180917C0880FF15C01D
:101060001982F6018281882311F081E101C082E1B9
:101070008A83F60180818B8381818C838EEF8D83BF
:1010800065E0CE0101960E94DE27F60182810930DB
:10109000FDE51F0759F00A302DE5120709F446C097
:1010A000023C3CE5130709F08AC062C0882309F4BA
:1010B00074C19091390881E0890F8770987F8530DD
:1010C00020F4892B8093390802C0909339088091CD
:1010D00039088770EFEF8E9FC00111249595879591
:1010E0009595879599279093890080938800909390
:1010F0008B0080938A0090938D0080938C004091A8
:10110000390850913A0860913B0870913C088FE093
:1011100090E00E947A34609177087091780880910D
:10112000790890917A080E94101337C1882309F436
:1011300034C18091390883FB222720F991E092275E
:1011400090FB83F980933908992329F040E060E00F
:1011500080E00E94F91C4091390850913A08609152
:101160003B0870913C088FE090E00E947A3415C1F2
:10117000882309F414C790911B01809139089F3F7F
:1011800059F410921B018F7E8093390840E060E093
:1011900080E00E94F91C06C09FEF90931B018061C4
:1011A000809339084091390850913A0860913B0882
:1011B00070913C088FE090E00E947A34F0C60D30C8
:1011C000FDE51F0709F4C1C058F40B303DE51307D6
:1011D00009F4AFC00C309DE5190709F4AEC0DDC0BD
:1011E0000E30EDE51E0709F4C2C00F30FDE51F0704
:1011F00009F0D3C0882309F4D0C03CE9E32E36E0DF
:10120000F32E4AE0642EF7012491222309F4C5C08D
:10121000213009F04BC031968491813051F4F2E0D5
:10122000EF0EF11CF701B4908B2D0E94CA328B2D6A
:1012300011C0823041F4F2E0EF0EF11CF70184910D
:101240000E94CA3272C0833041F4F2E0EF0EF11C0A
:10125000F70184910E94633268C0843009F064C051
:10126000F2E0EF0EF11CF701249180E090E030E015
:10127000205331092A30310570F4689EA001699E1F
:10128000500D1124C901840F951FFFEFEF1AFF0ABB
:10129000F7012491ECCF009709F447C0EFE9FFE094
:1012A0003197F1F700C000000197F5CFE22FF0E091
:1012B000E45EF94F7490822F86958695869590E02E
:1012C000FC01E45FF94F84902770912C022E02C03C
:1012D000959487940A94E2F7F1E08F229924FC0117
:1012E000E450FA4FA490B12C02C0B594A7942A956B
:1012F000E2F721E0A222BB248114910419F081EECF
:101300000E94CA32A114B10419F086EE0E94CA32BA
:10131000872D0E94632FAB2819F086EE0E9463325E
:10132000892819F081EE96CF7F013FEFE31AF30A87
:101330006ACF882309F433C627C0882309F42FC64F
:1013400081E00E94051D8CEA19C0882309F427C694
:1013500081E00E94051D86E58093B7088FEF80939A
:10136000B80880E88093B9080E94FD1C18C688233D
:1013700009F415C681E00E94051D8BE18093B70832
:101380008FEF8093B808EECF81E001C088E10E9422
:10139000051D05C680E090E061CEF60182818823BC
:1013A00019F1033E8CE51807C1F050F4013EECE55D
:1013B0001E0781F0023EFCE51F07B1F481E010C07A
:1013C000043E2CE5120759F0053E3CE5130761F495
:1013D00084E006C01092350805C082E001C083E0B9
:1013E000809335080E94D01E17FF71C0F6018281DC
:1013F000882309F46CC0809115098093B30610927C
:10140000150980913508813071F048F08230C1F0C3
:101410008430E1F486EE0E94632F88E115C082EEED
:101420000E94CA3213C083E00E94442F88E10E94C8
:10143000CA3288E10E94633283E00E94392F06C0DD
:1014400082EE0E94CA3287E50E94632F8FE39CE9F7
:101450000197F1F700C000005801E894B7F82CE0BC
:10146000E22EF12CC5010E2C02C0969587950A94A8
:10147000E2F7282F2F7041F0822F90E02A3010F4ED
:101480004D9604C0069702C087E290E00E94632F49
:1014900094E0E91AF108ECEFEE16EFEFFE0611F713
:1014A00080913508813039F040F0823031F084305D
:1014B00051F488E206C08CE204C082EE0E946332DE
:1014C00002C00E94632F8091B30680931509033FE9
:1014D000FCE51F0729F180F4083D3CE51307C9F03E
:1014E000093D8CE5180741F1073D9CE5190739F5E1
:1014F00026E241EE61EE10C0053FECE51E07C1F0AB
:1015000098F0063F2CE51207D1F427E245EE66EE8F
:1015100003C027E245EE65EEC6010E94D61E3FC518
:1015200026E241EE60EEF8CF27E245EE64EEF4CF1E
:1015300026E241EE62EEF0CF28E241E0ECCFF60188
:101540009281992309F439C11092B4060230FCE566
:101550001F0708F41CC106312CE5120738F098016A
:101560002A5F3C452730310508F011C10E94202A2E
:1015700090934C0880934B080F303CE5130709F417
:10158000CFC008F042C008309CE5190709F4A8C094
:10159000F0F40430FCE51F0709F490C068F4023051
:1015A0003CE5130709F486C003301C4509F0DFC091
:1015B00080914B088260D9C006309CE5190709F478
:1015C00087C008F089C080914B088860CEC00B307E
:1015D000FCE51F0709F495C068F409303CE51307E2
:1015E00009F482C00A301C4509F0C1C080914B0843
:1015F000886080C00D309CE5190709F486C008F0AA
:1016000087C080914B088D7FB0C00A3FFCE51F0763
:1016100009F457C050F502313CE5130709F488C0BE
:1016200068F400319CE5190709F47EC001311C45BE
:1016300009F09DC080914B088F7B97C00431FCE579
:101640001F0709F487C008F479C005311C4509F06B
:101650008EC080914B0882FB222720F991E09227CF
:1016600090FB82F990FB83F980C00D3F8CE5180751
:1016700009F452C058F40B3FECE51E0729F10C3F6A
:101680001C4509F074C080914C0860C00F3F2CE5E8
:10169000120709F458C080F101151D4509F067C013
:1016A00080914C08982F909591708E7F892B90FB9C
:1016B00081F94DC080914B08816057C080914B08E3
:1016C00019C080914C081BC080914C0882603FC0BB
:1016D00080914B08806149C080914B08806245C071
:1016E00080914B08806441C00E94242F80914B0858
:1016F00080683BC0846039C080914C088260816002
:1017000026C080914B088E7F30C080914B0819C055
:1017100080914B08877F29C080914C088D7F17C02E
:1017200080914B088F7E21C080914B088F7D1DC01A
:101730000E94242F80914B088F7717C080914B080F
:10174000877F8B7F12C080914C088D7F8E7F809326
:101750004C080DC00E94242F80914B0887FB222744
:1017600020F991E0922790FB87F980934B086091D4
:101770004B0810914C0884E090E00E946834612F7F
:1017800081E290E00E9468340E94242F08C4809176
:1017900015090631FCE51F0709F58A7A91E009F47D
:1017A00090E09093B506882311F065E301C069E2EB
:1017B0008BEB98E00E94EB290EC006311C4509F026
:1017C000C1C08091B506882309F4E7C365E38BEBBC
:1017D00098E00E94C3290E94FB2AE1C38272F801AB
:1017E000E25CFC45E431F10508F057C0EA5AFF4FCE
:1017F0000C9450369091B60881E089278093B60802
:1018000010920A01B1CD4BE55DE161E77DE12CC0AD
:1018100041E75DE16BE57DE127C04DE45DE164E515
:101820007DE122C044E55DE16DE47DE11DC049E359
:101830005DE163E47DE118C043E45DE169E37DE1DE
:1018400013C045E25DE16FE27DE10EC04FE25DE174
:1018500065E27DE109C041E15DE16BE17DE104C04C
:101860004BE15DE161E17DE10E94E61C98C365E02A
:1018700082E00EC068E086E00BC06EE089E008C040
:1018800064E18FE005C067E185E102C062E289E1C1
:101890000E94871D84C383E27ACD0E3DECE51E07CE
:1018A00009F446C00830FDE51F0709F444C00115DE
:1018B0001C4509F047C00E94242F3FEF84E39CE0C1
:1018C000315080409040E1F700C00000F89481E082
:1018D0008093E00080E28093D8001092C900EFE18D
:1018E000FEE43197F1F700C000001DBA10926800C5
:1018F0001CBC10BE1FBA10927A0010926E0010929B
:101900006F0010927100109272001092C900109234
:10191000BC0014B817B81AB81DB810BA1092BC00A1
:1019200015B818B81BB81EB811BA0C94003F37C3CD
:101930000E94312A34C390917D0881E089278093E9
:101940007D082DC3F60100811181992349F0C8015A
:101950000E94412BF82E682FC8010E94BB2B04C0A7
:10196000C8010E948E2BF82EB8018F2D0E946211A3
:101970008C01B82EF601E580E2949FE0E922F28026
:10198000F1101092140980911209877079F0FF20EC
:1019900069F080E2800F883048F082E00E940C2CD1
:1019A000809112098770AA24A3948111A12C912EF1
:1019B00092948FE09822892D90E08C30910508F068
:1019C000CEC2FC01E659FF4F0C945036812F807F28
:1019D0001F70882311F01295107FFF20B9F011239A
:1019E00009F447C280E2800F883010F0B11006C0C1
:1019F00080911509182B1093150905C080911409C1
:101A0000182B109314090E94FB2A33C2802F0E94C6
:101A10006332112309F4A3C2005E1095083010F060
:101A2000B11006C08091150918231093150905C03F
:101A3000809114091823109314090E94FB2A8FC265
:101A4000812F807F1F70803211F01295107FBB2094
:101A500021F0F1E0BF16E1F028C0FF2081F0809175
:101A60001609EE2051F001E0E01207C0182B1817FC
:101A700009F475C21093160972C2812B10C0EE20B2
:101A800021F021E0E21609F46AC20E94F52A1FC083
:101A9000FF2041F031E03E1508F461C2812F0E9421
:101AA000592F5DC2E1105BC212C0FF2019F0EE2079
:101AB000A9F3DFC1EE2059F0093309F0ECC18FEF33
:101AC00097EEE3E081509040E040E1F7E2C1812FE2
:101AD0000E944E2F44C2812F86958695837019F0FF
:101AE000813059F03CC2FF2019F0C801937002C048
:101AF00080E090E00E94891C38C2FF2019F0C801E4
:101B0000937002C080E090E00E94731C2EC2FF2000
:101B1000F9F0053F51F0063F71F0043FA9F48091C0
:101B2000B6069091B70681600BC08091B606909181
:101B3000B706826005C08091B6069091B7068460B2
:101B40009093B7068093B606802F0E94C0281EC0CF
:101B5000053F51F0063F71F0043FA9F48091B606AD
:101B60009091B7068E7F0BC08091B6069091B70614
:101B70008D7F05C08091B6069091B7068B7F9093BC
:101B8000B7068093B606802F0E94F6270E9484290C
:101B9000ECC1812F837009F069C0F110E4C1902F6E
:101BA000929596959770990F990F802F8F70482E68
:101BB000512C612C712C092E04C0440C551C661C40
:101BC000771C0A94D2F704FF12C04FE050E060E0A7
:101BD00070E004C0440F551F661F771F9A95D2F717
:101BE000DB01CA0180959095A095B09503C080E077
:101BF00090E0DC0116951695412F4370423019F1A3
:101C0000C8F4009117091091180920911909309111
:101C10001A09413059F084299529A629B729BC0110
:101C2000CD0160237123822393230AC0402A512AC5
:101C3000622A732ABC01CD01642975298629972956
:101C40000E94CC2C90C184299529A629B7290091FE
:101C50001709109118092091190930911A09BC012E
:101C6000CD016027712782279327EACFFF2019F043
:101C7000812F817001C08695882309F474C1902F4B
:101C8000929596959770990F990F802F8F70482E87
:101C9000512C612C712C092E04C0440C551C661C5F
:101CA000771C0A94D2F704FF12C04FE050E060E0C6
:101CB00070E004C0440F551F661F771F9A95D2F736
:101CC000DB01CA0180959095A095B09503C080E096
:101CD00090E0DC0116951695412F43704230D9F003
:101CE00068F5009177081091780820917908309173
:101CF0007A08413059F084299529A629B729BC01D1
:101D0000CD0160237123822393231EC0402A512AD0
:101D1000622A732A13C084299529A629B72900911C
:101D20007708109178082091790830917A08BC01E1
:101D3000CD01602771278227932706C0BC01CD0102
:101D400064297529862997290E948F2C0CC11F7040
:101D5000FF2039F0812F0E94252C802F0E94592FBF
:101D600002C1802F0E944E2F812F0E94E72BFBC0C3
:101D7000802FF2EFBF1609F43EC0FB1538F020EFBC
:101D8000B21661F031EFB31689F16EC093EFB91658
:101D9000C9F1E4EFBE1609F44BC066C0FF2009F19B
:101DA000E110DDC01F7181E090E0A0E0B0E0AC0187
:101DB000BD0104C0440F551F661F771F1A95D2F747
:101DC0008091770890917808A0917908B0917A086D
:101DD0008A019B01082719272A273B27C901B80137
:101DE00021C021E02E1508F4BAC0DCCFFF2029F075
:101DF000812F8F712BC0FF20D9F3812F8F710E940B
:101E0000E72BADC0FF2089F01F7181E090E0A0E0DA
:101E1000B0E0BC01CD0104C0660F771F881F991F79
:101E20001A95D2F70E948F2C9AC00E94462C97C018
:101E3000FF2079F01F71812F0E94252C38E0139F1D
:101E4000C0011124836080931209812F0E94252CE8
:101E500086C081E00E940C2C81E08E1508F07FC0C6
:101E600082E00E940C2C7BC0FF2039F0EE2009F4A8
:101E7000BFCF802F0E94CA3272C0EE2009F4BDCFBE
:101E8000893349F49FEFE7EEF3E09150E040F040F2
:101E9000E1F700C00000802F0E94633260C012EFA3
:101EA000B116E1F01B1538F020EFB21669F031EFF2
:101EB000B31611F12BC084EFB816C9F0B81660F054
:101EC00095EFB91671F022C0FF2009F44EC0909131
:101ED000210981E0892708C081E0F826F0922109D4
:101EE00044C0F11042C081E0809321093EC0F1104E
:101EF0003CC01092210939C0FF2029F080912009AF
:101F0000882329F329C0EE2011F32FC080912009E6
:101F1000EE20C1F0882341F09091210981E08927CA
:101F20008093210910922009802FFF2019F00E9430
:101F3000CA321BC00E94633286E0F60111928A9574
:101F4000E9F713C0882389F0F1100FC0909121099F
:101F500081E08927809321091092200906C088EF2B
:101F6000890D843010F40E949F1CAA20C1F080913A
:101F7000120980FD14C0F60112828595859585951C
:101F80000E94252CC6010E94370780911209859571
:101F9000859585950E94E72B02C069E218CC2A96A8
:101FA0000FB6F894DEBF0FBECDBFDF91CF911F916A
:101FB0000F91FF90EF90DF90CF90BF90AF909F90E8
:101FC0008F907F906F905F904F90089590914B0805
:101FD00092FF0DC0282F2871283019F4877F846064
:101FE00006C0282F2471243011F48B7F886093FF62
:101FF0000DC0282F2871283119F4877E846106C00E
:10200000282F2471243111F48B7E886120914C0893
:1020100020FF0DC0382F3871383019F4877F816068
:1020200006C0382F3171313011F48E7F886021FF66
:102030000DC0282F2871283119F4877E816106C0D0
:10204000282F2171213111F48E7E886194FD877EC5
:1020500008953F924F925F926F927F928F929F92DC
:10206000AF92BF92CF92DF92EF92FF920F931F93A6
:10207000CF93DF9320E9289F7001299FF00C112452
:10208000C0E0D0E000E010E067018FEFC81AD80A86
:10209000570182E0A80EB11CF701EC0FFD1FE755B8
:1020A000F94F6491F601EC0FFD1FE755F94F74915C
:1020B000F501EC0FFD1FE755F94F8491611107C041
:1020C000711105C0811103C020E040E03CC00E94B6
:1020D000451E962E372E882E6091B90870E080E05C
:1020E00090E00E942D3520E030E04FE753E40E945D
:1020F0008C342B013C01682D70E080E090E00E9460
:102100002F35A30192010E94BB350E94FE34862E1A
:10211000692D70E080E090E00E942F35A3019201CC
:102120000E94BB350E94FE34962E632D70E080E045
:1021300090E00E942F35A30192010E94BB350E94BE
:10214000FE34282D492DC8010E94FB1C0F5F1F4F34
:102150002396C039D10509F09FCFDF91CF911F9110
:102160000F91FF90EF90DF90CF90BF90AF909F9036
:102170008F907F906F905F904F903F900895CF9396
:10218000E82F873080F580910D0190910E01892B09
:1021900009F047C0CE2F64E670E080E40E945D3312
:1021A00090930E0180930D01892BD1F464E670E0C9
:1021B00082E10E94B43390930E0180930D01892B2C
:1021C00079F481E090E001C0880FCA95EAF764E6EF
:1021D00070E080950E94B43390930E0180930D01BE
:1021E000CF910C94303490E0FC013797E730F10543
:1021F000C0F4EA58FF4F0C945036209A289811C02A
:10220000219A29980EC0229A2A980BC0239A2B98BB
:1022100008C0529A5A9805C0539A5B9802C03E9AD9
:102220004698CF910895CF93873008F03FC08091B2
:102230000D0190910E01892B09F041C064E670E018
:1022400080E40E945D3390930E0180930D01892BF1
:1022500011F0C0E027C064E670E083E10E94B4336F
:1022600090930E0180930D01892B99F764E670E03D
:1022700081E40E945D3390930E0180930D01892BC0
:1022800041F784E690E00E94E43397FF05C0909305
:102290000E0180930D01DDCFC82FC09510920E0165
:1022A00010920D010E9430348C2F0AC09FB18FB163
:1022B000807F869586959370892B809501C080E0FC
:1022C000CF910895CF93DF9324E5829FC00111241D
:1022D000FC0146E0749FE00DF11D1124E60FF11D95
:1022E000EE0FFF1FEC59FE4FC591D491CE01C238BD
:1022F000D10569F1B0F4C133D10509F475C048F4D2
:10230000C932D10509F469C0CA32D10509F473C0D4
:1023100085C0C533D10509F459C0C933D105B9F019
:102320007DC0C33ED10571F138F4C03ED105B1F096
:10233000C23ED10511F172C0C63ED105B9F1C73E0A
:10234000D105C9F1C43ED10509F068C024C020916F
:102350004B0820FD5DC021FD5BC060C020914B0893
:1023600020FD50C020914C0820FF57C180914B08A0
:1023700084FD51C183EE90E050C120914B0822FFB3
:102380004CC1F4CF80914B0882FD3FC080914C0836
:1023900080FD3EC0EBCF20914C0821FF3EC18091D3
:1023A0004B0884FD38C187EE90E037C120914B087F
:1023B00023FF33C1F4CF80914B0883FD2CC0809163
:1023C0004C0881FFECCF84EE90E027C120914B08B0
:1023D00025FF23C189E290E020C120914B0825FF11
:1023E0001CC185E390E019C120914B0826FF15C15F
:1023F0008AE290E012C120914B0826FF0EC181E3D2
:1024000090E00BC189E390E008C182EE90E005C145
:1024100080EE90E002C186EE90E0FFC0C11552E56B
:10242000D50708F075C0C11521E5D20728F09C2F0B
:102430008827816F906AF1C0C83ED10570F5C03E13
:10244000D10508F0EAC0C83AD105B8F4C53AD105BB
:1024500050F08C2F855AC82FD0E0C058DC4F8881AF
:1024600090E09064DAC0C130D10509F4D6C008F418
:10247000D2C0249708F4CFC0D0C0CF3BD10508F01C
:10248000CAC08C2F885AC82FD0E0CC0FDD1FCD5783
:10249000DC4F888199819464C0C0C11540E2D407A3
:1024A00060F4C11551E0D50708F0B7C0C03FD105B1
:1024B00008F4B1C0CE019065B0C0C11580E4D80762
:1024C00008F4A9C0C11520E5D20720F4CE019F7001
:1024D000906AA3C0CE01F4E096958795FA95E1F74E
:1024E000282F23703C2F337081E090E002C0880FCA
:1024F000991F3A95E2F79C68922B2C2F2F70269506
:10250000269550E2259F90011124822B932B85C0A4
:10251000C11546E5D40708F03FC0C11555E5D507FC
:1025200048F08C2F0E94E60F8F7190E0982F88273B
:10253000906273C0C11584E5D80728F09C2F8827C6
:10254000846F906A6AC09E01237033279C2F9695F2
:102550009695C115D34580F441E050E002C0440F88
:10256000551F2A95E2F780E2989F90011124CA0135
:10257000822B932B9C6851C041E050E002C0440F75
:10258000551F2A95E2F780E2989F90011124CA0115
:10259000822B932B9A6841C0C1155AE5D50778F56F
:1025A000C11589E5D80710F18C2F8F700E94E60FB6
:1025B0009E0194E0369527959A95E1F72F7030E0CB
:1025C000322F22273069A901482B0EC09056811561
:1025D000904208F58D2F8F710E94E60F9E013327E0
:1025E00030628F71A901582BCA0117C0C11528E5A7
:1025F000D20788F09C2F8827806F906A0EC0C11583
:102600004BE5D40740F0CE01C1155CE5D507F0F6E7
:102610009927906602C080E090E0DF91CF91089505
:10262000CF92DF92EF92FF926B017C010E94A52A6C
:1026300056985E9825982D9826982E9827982F982A
:1026400090E0FC013197E730F105A8F4E358FF4F23
:102650000C945036259A2D9A0EC0259A2D9A269ABA
:102660002E9A09C0259A2D9A04C0259A2D9A269A49
:102670002E9A279A2F9AC701B601FF90EF90DF900C
:10268000CF90089540E060E080E00E94F91C81E076
:1026900080935B09089580E290E090930E0180930F
:1026A0000D018091C20681110EC00E94573381E056
:1026B0008093C2062FEF83ED90E32150804090403D
:1026C000E1F700C0000064E670E080E40E945D3342
:1026D00090930E0180930D01892B09F04EC064E6A2
:1026E00070E080E00E94B43390930E0180930D015E
:1026F000892B09F042C064E670E080E00E94B433A8
:1027000090930E0180930D01892BB9F564E670E07A
:102710008FE30E94B43390930E0180930D01892BB7
:1027200061F50E94303464E670E080E40E945D331D
:1027300090930E0180930D01892BF9F464E670E00B
:102740008CE00E94B43390930E0180930D01892B8D
:10275000A1F464E670E080E00E94B43390930E012F
:1027600080930D01892B49F464E670E08FE30E94A9
:10277000B43390930E0180930D010E943034809108
:102780000D010895CF93DF9356985E9825982D9864
:1027900026982E9827982F98C8E8D0E08FEF90E0E1
:1027A00099838883AAE8B0E011969C938E93ECE815
:1027B000F0E091838083259A2D9A2FEF80E792E0B5
:1027C000215080409040E1F700C00000269A2E9AE8
:1027D0002FEF80E792E0215080409040E1F700C069
:1027E0000000279A2F9A2FEF80E792E02150804037
:1027F0009040E1F700C0000025982D982FEF80E76A
:1028000092E0215080409040E1F700C000002698FF
:102810002E982FEF80E792E0215080409040E1F722
:1028200000C0000027982F988091390887702FEFFB
:10283000829FC00111249595879595958795992735
:102840009983888311969C938E9391838083569865
:102850005E9825982D9826982E9827982F98DF9186
:10286000CF91089584B1807F84B985B1807F85B987
:102870008AB1837F8AB98BB1837F8BB93E984698A2
:10288000089580B38C7080BB81B3836F81BB089542
:102890008F929F92AF92BF92CF92DF92EF92FF9270
:1028A0000F931F93CF93DF9380910D0190910E01B1
:1028B000892BA1F08091C1068F5F8093C1068111A1
:1028C0000DC00E944B1390E090930E0180930D0178
:1028D000892B21F40E94A41D0E94C2136DE3E62EF1
:1028E00068E0F62E6701D0E0812C07E00D0F8D2FF8
:1028F0000E94BF10802F0E94BF108D2F0E941311C5
:10290000F6019081891719F0808311E001C010E071
:10291000802F0E941311F6019781891719F0878380
:1029200081E001C080E0182B812A0E943214DF5F11
:10293000FFEFCF1ADF0AD730C1F60E9478296AEF7D
:1029400070E00E942836BC01482F8091B906882388
:10295000D9F11092B906E0913308F0913408DF0103
:102960001E9690E08BEF0AEF10E020812B3F99F04C
:10297000C22ED12C421720F09B012C193D0905C015
:1029800098012C193D09260F371F2E31310514F0FF
:10299000808301C091E03196EA17FB0731F79093ED
:1029A000B906811002C0911111C01092B806E091D1
:1029B0003308F09134089091B906A0E5B8E0BF0162
:1029C000625F7F4F80E028C08110EFCF8091B80612
:1029D0008111EBCF0091BA061091BB062091BC0685
:1029E0003091BD068FB7F89440911B0950911C0996
:1029F00060911D0970911E098FBFDB01CA01801B08
:102A0000910BA20BB30B4017510762077307E0F459
:102A10000197A109B10918C0E70129917E013C91F4
:102A2000321741F030813B3F21F440832C9391E0F9
:102A300001C081E0319611966E177F0769F7909378
:102A4000B9068093B806C6CF2FB7F894C0901B097B
:102A5000D0901C09E0901D09F0901E092FBFC09274
:102A6000BA06D092BB06E092BC06F092BD06409139
:102A7000B2085091B3086091B4087091B5084F3F07
:102A8000DFEF5D076D077D07E9F0AA27BB278C0103
:102A90009D01009510952095309504171507260780
:102AA000370720F48FEF9FEFDC0104C0840F951FE0
:102AB000A61FB71F8093B2089093B308A093B408E1
:102AC000B093B50890905B09911008C0D091B608FA
:102AD0008D2F837019F0D695D69501C0D0E08091E6
:102AE0000A018130A1F038F0823009F489C18330C5
:102AF00009F493C1B9C110921A01C092AE08D092E4
:102B0000AF08E092B008F092B10881E083C18091F3
:102B10000C01D8130DC02091B608237030E040910D
:102B20000B0150E081E02417350719F480E001C063
:102B300081E0817080931C014D2F50E0463151059A
:102B400008F04CC1FA01EC57FF4F0C945036882323
:102B500009F444C180911A01182F110F110F180F99
:102B600005E0010F013308F000E3101708F0F7C08B
:102B700020E040E060E0812F90E00E94FB1C1F5F9E
:102B8000F4CF80911A01182F110F110F180F05E0C3
:102B9000010F013308F000E36091B7087091B808A5
:102BA0008091B9080E94451EE62ED72EC82E101718
:102BB00008F0D5C0E12FF0E0DF01A05BBC4F8C91A5
:102BC00090911B01982331F02C2D4E2D6D2DCF01AE
:102BD0000E94FB1C1F5FEBCF80911A01182F110F71
:102BE000110F180F05E0010F013308F000E3B0905A
:102BF000B808A090B9082091BA0850E4E52E3E2DFF
:102C0000329F312D1124E32E101708F0A8C0C12ED9
:102C1000D12CF601E05BFC4F908180911B01892350
:102C2000B9F0F601EE0FFF1FEF50FD4F8081829546
:102C30008F706091B7088E9D600D11247B2D8A2DB9
:102C40000E94451E462F282F672FC6010E94FB1C9D
:102C50001F5FDACF80911A01182F110F110F180F73
:102C600005E0010F013308F000E3B090B808A09030
:102C7000B9082091BA0830E4C32E3C2D329F312D83
:102C80001124C32E101708F06AC0E12EF12CF701B1
:102C9000E05BFC4F908180911B018923D9F0F70103
:102CA000EE0FFF1FE051FD4F6081C69EB001112461
:102CB00095E0759567959A95E1F78091B708680F4B
:102CC0007B2D8A2D0E94451E462F282F672FC70176
:102CD0000E94FB1C1F5FD6CF80911A01182F110F85
:102CE000110F180F05E0010F013308F000E3D09039
:102CF000B708E090B808C090B9086091BA08669526
:102D0000669566958091AE089091AF080E943B1E33
:102D10000E94C01D805887FD8195880F282F3C2D6B
:102D2000239F212D1124822F6D2D7E2D0E94451E63
:102D3000E62ED72EC82E101790F4E12FF0E0DF0119
:102D4000A05BBC4F8C9190911B01982331F02C2DEE
:102D50004E2D6D2DCF010E94FB1C1F5FECCF81E03B
:102D60000033E8F13BC080E299E11AC084EF98E1BA
:102D700017C089EF99E11FC08AED99E11CC08FEB64
:102D800099E11EC083EA99E11BC082EF98E108C077
:102D900089EE98E105C080EE98E102C085EC98E1EB
:102DA0000E9460241CC086EB98E10AC082E19EE18B
:102DB00002C082E999E10E94042411C08EE799E1E2
:102DC0000E9488230CC088E898E105C086E598E158
:102DD00002C088E198E10E94272301C080E0909121
:102DE0001A019F5F90931A0181113EC082E0809387
:102DF0000A0180911C01811137C0DD2351F034C0DC
:102E0000D0930C018091B608837080930B010E94CF
:102E10003C1A83E080930A0127C0C090AE08D0908E
:102E2000AF08E090B008F090B1088FB7F8944091E7
:102E30001B0950911C0960911D0970911E098FBFDB
:102E4000DB01CA018C199D09AE09BF094C155D054E
:102E50006E057F0518F40197A109B1094A97A105EC
:102E6000B10510F010920A01911036C080915B09F3
:102E7000811132C08091390883FD2EC0609177089E
:102E8000709178088091790890917A080E94A52A1B
:102E9000843091F038F4823061F08330A9F483E01B
:102EA00090E00CC0853069F0863071F486E090E0E7
:102EB00005C082E090E002C084E090E00E9429100A
:102EC0000BC085E090E0FACF80911B01811104C016
:102ED00040E060E00E94F91C20917D088091BF06CF
:102EE0009091C006222309F43FC0892B31F4259824
:102EF0002D9826982E9827982F988091BF0690910C
:102F0000C0069170892B79F48091BE06882319F050
:102F100026982E9802C0269A2E9A9091BE0681E09D
:102F200089278093BE068091BF069091C0068130AC
:102F3000984780F010927D0860917708709178082A
:102F40008091790890917A080E9410131092C0061F
:102F50001092BF068091BF069091C0060196909393
:102F6000C0068093BF0610C0892B71F01092C00676
:102F70001092BF0660917708709178088091790867
:102F800090917A080E941013882DDF91CF911F91A4
:102F90000F91FF90EF90DF90CF90BF90AF909F90F8
:102FA0008F9008958033910540F5880F991F880F01
:102FB000991FFC01E85DFE4F52813381808183704F
:102FC0007181A82FB0E0E0E98E9FC00111248752E3
:102FD000994FFC01E70FF11DB4976083FC01E50FE9
:102FE000F11DB4974083830F911DFC01B49720839A
:102FF000FD01E952F94F81E080830895FF920F931C
:103000001F93CF93DF93182F062FF42EC0E0D0E04C
:103010002F2D402F612FCE010E94D2172196C03351
:10302000D105B1F7DF91CF911F910F91FF900895D6
:103030000F931F9310E0F801EE0FFF1FE051FD4FBB
:103040009081905797FD9195000F111FF801EF5057
:10305000FD4FE081F0E0B097DF01AA0FBB1F8D01AB
:103060000E0F1F1F2003D001219FB00D1124E8E394
:10307000F0E0E91BF10997FDF3959F01220F331F43
:1030800089010E0F1F1F40039001419F300D112435
:103090002A0F3B1F37FF02C021583F4F220F232F1B
:1030A000221F330B620F1F910F9108950F931F93EF
:1030B000522F10E0F801EE0FFF1FEF50FD4FE0819F
:1030C000F0E0B097EE0FFF1F9F015203D001539F16
:1030D000B00D1124000F111FF801E051FD4F0081C8
:1030E00010E000571109000F111F40039001419F8C
:1030F000300D11242A0F3B1F37FF02C021583F4FCC
:10310000220F232F221F330B620F1F910F9108955F
:103110000F931F93522F10E0F801EE0FFF1FEF5097
:10312000FD4FE081F0E0B0979F015203D001539F23
:10313000B00D1124000F111FF801E051FD4F008167
:1031400010E00057110940039001419F300D1124F8
:103150002A0F3B1F37FF02C021583F4F220F232F5A
:10316000221F330B620F1F910F910895EF920F935F
:103170001F9393E0099F80011124159507956E2DEB
:10318000600F1F910F91EF900895A22F50E0FA0168
:10319000EE0FFF1FEF50FD4F9081905297FD9195DC
:1031A000440F551FFA01E051FD4F3081232F30E0CD
:1031B0002A1B3109290F311D97FD3A95620F089599
:1031C000E42FF0E0EE0FFF1FEF50FD4F6081621B18
:1031D0000895E42FF0E0EE0FFF1FE051FD4F6081F6
:1031E000621B0895622F0895E42FF0E0EE0FFF1F99
:1031F000E051FD4F408134EE439F412D1124E82FD3
:10320000F0E050E0445E5F4FDA01A21BB1099D017E
:10321000B7FF03C031952195310993E0220F331F89
:103220009A95E1F7AF01421B530B9A0157FF02C079
:1032300020E030E0582F259F212D1124822F089562
:10324000E42FF0E0EE0FFF1FE051FD4F408134EE20
:10325000439F412D1124E72FF0E050E0445E5F4F83
:10326000DA01A21BB1099D01B7FF03C03195219579
:10327000310993E0220F331F9A95E1F7AF01421B0A
:10328000530B9A0157FF02C020E030E0279F212D09
:103290001124722F0895FC019B01009721F477FF00
:1032A0002BC080E80895AC0197FF04C04427552740
:1032B000481B590BB901640F751F37FD0CC0241B47
:1032C000350BC901A5E0880F991FAA95E1F70E9467
:1032D0003C3680E20CC0CB0165E0880F991F6A95EF
:1032E000E1F7BA01621B730B0E943C3680E6861B35
:1032F000F7FF03C08195089580E00895EF920F9342
:10330000CF93DF93D72FC82FC9010E19BA010E949E
:103310004B19602F681B7D2F8C2FDF91CF910F9160
:10332000EF9008950F93CF93DF93D72FC82FC90144
:10333000BA010E944B19682F600F7D2F8C2FDF91EF
:10334000CF910F910895EF920F931F93CF93DF9337
:10335000D62FC72F182FC9010E19010FBA010E94CD
:103360004B19081B202F219F212D1124822F6D2FF7
:103370007C2FDF91CF911F910F91EF900895EF92E5
:103380000F931F93CF93DF93D62F172FC82FC90109
:103390000E19070FBA010E944B19702F781B719FED
:1033A000712D11246D2F8C2FDF91CF911F910F91D3
:1033B000EF900895FF920F931F93CF93DF93F62E14
:1033C000D72F182FC901C12FC01BBA010E944B195A
:1033D000982F990F890FC81B2C2F219F212D112465
:1033E000822F6F2D7D2FDF91CF911F910F91FF9035
:1033F0000895FF920F931F93CF93DF93F62E172F0D
:10340000D82FC901C72FC01BBA010E944B19982F92
:10341000990F890F7C2F781B719F712D11246F2DAF
:103420008D2FDF91CF911F910F91FF9008950F93F2
:103430001F93CF93DF93082F000FEB0114E210933B
:10344000C306E4ECF6E0DE018D91819386E0E43D75
:10345000F807D1F724E630E041E150E063EC76E094
:10346000802F0E940934105F6096143B41F7DF9172
:10347000CF911F910F9108958091D706882329F04D
:1034800069ED76E084E70E94171A1092D7068091C2
:10349000D806882329F069E677E087E70E94171AA3
:1034A0001092D8060895E3ECF6E06083418324E6A9
:1034B00030E042E050E0BF01880F0C940934FF92E5
:1034C0000F931F93CF93DF93E62FF0E0E35EF74F68
:1034D00090819923B1F0F82E82E1689FE0011124D8
:1034E00000E010E0F801EC0FFD1FE750F84F4081BD
:1034F000602F8F2D0E94531A0F5F1F4F023111054D
:1035000089F7DF91CF911F910F91FF900895CF938D
:10351000DF93C82F4BE06DEF0E94531A40E06AE042
:103520008C2F0E94531A8FE39CE90197F1F700C09A
:10353000000040E060E08C2F0E94531A40E061E000
:103540008C2F0E94531A40E066E08C2F0E94531A81
:1035500040E06DEF8C2F0E94531AD0E040E06D2FB9
:103560008C2F0E94531ADF5FD231C1F740E06D2FDC
:103570008C2F0E94531ADF5FD432C1F740E06D2FC9
:103580008C2F0E94531ADF5FD43BC1F74BE06DEFE5
:103590008C2F0E94531A41E06AE08C2F0E94531A2C
:1035A00040E06DEF8C2FDF91CF910C94531A7F92F6
:1035B0008F929F92AF92BF92CF92DF92EF92FF9243
:1035C0000F931F93CF93DF930E94573384E70E949A
:1035D000871A87E70E94871A08E211E0E12CF12C94
:1035E00042E138E0A32EB12CCC24C394D12C772413
:1035F0007394D80111962C91119730E0C9018497EA
:103600001296CC911297D0E0A4971396EC91F0E02B
:10361000B497BC0197FF02C0695F7F4FA3E0759527
:103620006795AA95E1F7D701AA0FBB1FAA0FBB1F89
:10363000A85DBE4F2C91237030E0429FD001439F84
:10364000B00D1124A750B84F4D01860E911CB50145
:103650000E943C36B60102C0660F771F8A95E2F7DA
:10366000CB01D4019C91892B8C93CE01D7FD079679
:1036700063E0959587956A95E1F7429FB001439F76
:10368000700D11246750784F4B01880E911CCE01AC
:10369000B5010E943C36B60102C0660F771F8A95BD
:1036A000E2F7CB01D4019C91892B8C93CF01F7FDDC
:1036B000079653E0959587955A95E1F7429FE0016B
:1036C000439FD00D1124C750D84FC80FD11DCF0133
:1036D000B5010E943C36F60102C0EE0FFF1F8A952D
:1036E000E2F7CF019881892B8883F901E35EF74FD8
:1036F0007082FFEFEF1AFF0A0C5F1F4F60E3E616C0
:10370000F10409F076CF60E084E70E945F1A61E07F
:1037100087E7DF91CF911F910F91FF90EF90DF909E
:10372000CF90BF90AF909F908F907F900C945F1A36
:103730000F931F93CF93DF93CDB7DEB767970FB685
:10374000F894DEBF0FBECDBF4B8B5C8B6D8B7E8B39
:103750008F8B0E891F890115110531F05F3F31F400
:1037600081E04F3F19F403C081E001C080E080FD9B
:1037700032C0242F30E0A1E0B0E0042E01C0AA0F37
:103780000A94EAF7852F90E0662319F070912109D9
:1037900005C0FC01EB5DF74F70817A237723A1F020
:1037A00046E0489FF001499FF00D1124E20FF31FFE
:1037B000EE0FFF1FE851FE4F40815181FC01EB5D90
:1037C000F74F9081A92B06C0FC01EB5DF74FA09548
:1037D0008081A823A08386E0FE013D96DF01982F1B
:1037E0001D929A95E9F74D875E876F87198B088B35
:1037F000DE01179601900D928A95E1F7CE010796AA
:103800000E94482D81113EC086E0FE013796DE0100
:10381000119601900D928A95E1F7FF81E8856A85FE
:103820007B856115710531F0EF3F31F481E0FF3F99
:1038300019F403C081E001C080E080FD23C0209125
:10384000280930E0C90101968770992740915909EC
:1038500050E08417950779F1F983EA837D836C83BF
:1038600096E0929FD001939FB00D1124A75DB64FB3
:10387000FE01319601900D929A95E1F78093280907
:103880000E94D62C16E08091590990912809891739
:10389000F9F0189FC0011124875D964F0E94482DB2
:1038A0008823B1F08091590990E00196877099279B
:1038B00080935909E8CF0E94242F10922809109272
:1038C0005909E2E2F9E086E0DF011D928A95E9F705
:1038D00067960FB6F894DEBF0FBECDBFDF91CF91D4
:1038E0001F910F91089520912308309124082817E3
:1038F000390771F09093240880932308E0914D08D4
:10390000F0914E08309721F00084F185E02D099464
:10391000089520912108309122082817390771F065
:103920009093220880932108E0914D08F0914E0871
:10393000309721F00680F781E02D09940895E091F9
:103940004D08F0914E08309721F00190F081E02D64
:10395000099480E008958F929F92AF92BF92EF9268
:10396000FF920F931F93CF93DF93EC017B01042F02
:103970008090770890907808A0907908B0907A08A5
:103980000E94242F0E94462C86E008028001112408
:10399000CE15DF0531F0CE010E943707C00FD11FD1
:1039A000F7CF0E94242F8092770890927808A092F7
:1039B0007908B0927A08DF91CF911F910F91FF9013
:1039C000EF90BF90AF909F908F900895882311F053
:1039D000FA0101C0FB0109948091B608837011F4CB
:1039E00010920A018091B6088C7F81608093B6089E
:1039F00008950C94FE170C94D21745E050E06CE14A
:103A000070E086EB98E00C945834E6EBF8E0880F11
:103A1000880F90819370892B808310920A010C94F7
:103A2000FD1CE6EBF8E0248130E1231B08F420E0E4
:103A300024830C94FD1CE6EBF8E0248130E1230F95
:103A400008F42FEF24830C94FD1CE6EBF8E02381AF
:103A500030E1231B08F420E023830C94FD1CE6EBEB
:103A6000F8E0238130E1230F08F42FEF23830C9437
:103A7000FD1CE6EBF8E0228130E1231B08F420E096
:103A800022830C94FD1CE6EBF8E0228130E1230F49
:103A900008F42FEF22830C94FD1CE6EBF8E0818103
:103AA000885081830C94FD1CE6EBF8E08181885FEF
:103AB00081830C94FD1C9091B608892F869586957C
:103AC000815C8F739370882321F0880F880F892B76
:103AD00002C0892F84658093B60810920A010C9465
:103AE000FD1C9091B608892F869586958F5F8F7300
:103AF0009370863120F4880F880F892B02C0892F9C
:103B000084608093B60810920A010C94FD1C909179
:103B1000B60896959695981720F0961710F40C9481
:103B2000711D0C94051DE6EBF8E081E38083809124
:103B30001D0190911E01A0911F0181839283A38397
:103B40008FE784830C94FD1C0E94D71A80E090E0DC
:103B50000E9452348F3E9E4F21F00E94312A0E94D3
:103B6000931D45E050E06CE170E086EB98E00E9428
:103B700034348091B6088C7F11F40C94931D089511
:103B8000482F982F46FD9095E92FEF739F7046FDC3
:103B90009F5FE295EF70EE0FF0E0E05EFE4F218157
:103BA000299F802D212D112482958F702295207FB1
:103BB000822B3081982F930F892F47FD8195805854
:103BC0000895BC018230910508F40895613E8EE1AC
:103BD000780748F49B0195E0369527959A95E1F78B
:103BE00048E0420F01C04FEF91E0242F30E0290F51
:103BF000311D35952795229FF001239FF00DF00D83
:103C000011246E177F0718F44FEF420F04C02F3FA7
:103C100039F091E0920F491740F78FEF890F08951F
:103C20008FEF08950F93CF93DF93D72FC82F47FDC2
:103C30004195E8E3F0E0CF01841B910947FD93959E
:103C4000889FB001899F700D700D1124229FC001C3
:103C5000239F900D900D1124860F971F0E94E11D48
:103C6000682F660F860F682F600F7D2F8C2FDF91D6
:103C7000CF910F91089520E030E0869F212D969FEF
:103C8000200D311D1124C9010895EF92FF920F9369
:103C90001F93CF93DF93F62E472FE82FF0E071119B
:103CA00006C0E756F54F6491762F862F72C0272FF6
:103CB00030E0E756F54FE4910E2F10E056E0659F97
:103CC000C0011124CFEFD0E0BE010E9428365BEA8C
:103CD0005603C001579F900D11248F0D911D8F0D1C
:103CE000911D982F990F890F7E01E21AF30AE09E29
:103CF000D001E19EB00DF09EB00D1124489FA001AF
:103D00001124452F55277E01E41AF50AE09EA001F3
:103D1000E19E500DF09E500D11247E01E81AF1082D
:103D2000E29EC001E39E900DF29E900D1124892F1A
:103D30009927C81BD90BC09FC001C19F900DD09F70
:103D4000900D11246230710591F048F461157105F0
:103D5000E1F061307105A9F48B2F752F19C0643023
:103D6000710561F038F06630710579F00AC0892F6D
:103D70007B2F0EC08E2F7B2FE52F0AC08E2F792F21
:103D800002C0852F7E2FEB2F03C08B2F7E2FE92FB4
:103D90006E2FDF91CF911F910F91FF90EF900895BB
:103DA000609135088CE090E00C9468340F931F9379
:103DB000CF93DF93C62FD42F122FFC01828188234B
:103DC000C9F06093B4060E947829909320088093EC
:103DD0001F0880E28C0F883008F057C0C77081E060
:103DE00001C0880FCA95EAF7DF91CF911F910F911B
:103DF0000C94592F8091B406681330C080911F082D
:103E0000909120080E944E29883C910538F500E2E7
:103E10000D0FCD17B9F080E28C0F883040F4C770D9
:103E200081E001C0880FCA95EAF70E944E2F083042
:103E300028F581E09D2F977001C0880F9A95EAF7C9
:103E40000E94592F812F0E94632F0830F0F4D77001
:103E500081E001C0880FDA95EAF70AC080E28C0F92
:103E6000883098F4C77081E001C0880FCA95EAF7DE
:103E7000DF91CF911F910F910C944E2F812FDF91E5
:103E8000CF911F910F910C94632FDF91CF911F91D0
:103E90000F910895CF93DF9300D01F92CDB7DEB777
:103EA0009091A208943019F589837B836A8382E01C
:103EB0008093E9008FEF9091E800815095FD06C056
:103EC00095ED9A95F1F700008111F5CF8091E8000A
:103ED00085FF0DC040E050E063E070E0CE01019648
:103EE0000E94AA248091E8008E778093E8000F90CA
:103EF0000F900F90DF91CF910895CF93DF93EC0156
:103F00000E945B32823011F0843031F4BE0184E0D3
:103F1000DF91CF910C944A1FDF91CF910895BC019E
:103F20006058710983E00C944A1FCF93DF93EC0132
:103F30000E945B32823011F08430F9F482E0809389
:103F4000E9008FEF9091E800815095FD06C095ED56
:103F50009A95F1F700008111F5CF8091E80085FF77
:103F60000CC040E050E066E070E0CE010E94AA2460
:103F70008091E8008E778093E800DF91CF910895DB
:103F8000CF93DF93EC010E945B32823011F08430DA
:103F9000D9F580911901882339F080914B0887FF6A
:103FA00003C060E282E002C068E081E08093E90043
:103FB0008FEF9091E800815095FD06C095ED9A95A0
:103FC000F1F700008111F5CF8091E80085FF1CC05A
:103FD00080911901811105C040E050E068E070E077
:103FE00003C070E040E050E0CE010E94AA2480911E
:103FF000E8008E778093E80080E2FE01A0E8B8E058
:1040000001900D928A95E1F7DF91CF910895CF93BA
:10401000DF93CDB7DEB7C955D1090FB6F894DEBF2F
:104020000FBECDBF84B7877F84BF0FB6F894A89525
:1040300080916000886180936000109260000FBEE4
:1040400090E080E80FB6F89480936100909361004F
:104050000FBE85B7806885BF85B7806885BF0E9421
:10406000BA2F0E9460308091E20084608093E20069
:1040700078948091A2088823A1F01091E9001F7024
:104080009091EC00892F817090FD80E8182B1092A0
:10409000E9008091E80083FD0E94FB241F701093CB
:1040A000E90082E084BD93E095BD9AEF97BD8093CF
:1040B0006E000E944B1390E090930E0180930D01CF
:1040C0000E9432140E944114ADE3B8E0E0E5F8E04C
:1040D00011921D9228E0EE35F207D1F78EE090E0C4
:1040E0000E9456368093330890933408FC010E9654
:1040F0002BEF21938E179F07E1F780E090E00E945D
:1041000052348F3E9E4F11F00E94312A0E94A41D0E
:104110008CE090E00E94443490E0A0E0B0E0809316
:10412000350890933608A0933708B093380889EA89
:104130008093800089E08093810024982C983F9898
:104140008AB18F7C8AB96E98479A8BB180638BB99C
:10415000769A8FE090E00E944C3460933908709317
:104160003A0880933B0890933C0867708FEF869FD6
:10417000B0011124759567957595679577277093AC
:1041800089006093880070938B0060938A0070931D
:104190008D0060938C009091390894FF03C0809348
:1041A0001B0102C010921B010E94C21380E090E02C
:1041B0000E9452348F3E9E4F11F00E94312A82E0BD
:1041C00090E00E944434809368080E94202A9093D3
:1041D0004C0880934B0883E090E00E944434682FA1
:1041E00070E080E090E00E94CC2C0E94EC1C0E94C9
:1041F000EC1C0E94FD1C8FE091E090934E08809390
:104200004D08EE24EA948EEFF82E93E0492E21E437
:10421000C22ED12CCC0EDD1E82E0C80ED11C30E1A6
:10422000732E42E1642E58E1A52EB12C60E4562E87
:104230008091A208853009F04CC00E944213809101
:10424000A208843019F110924F080FB6F894A8957F
:10425000A09260000FBE509260000E94421383B78C
:10426000817F846083BF83B7816083BF78948895A2
:1042700083B78E7F83BF0FB6F894A89580916000B6
:10428000886180936000109260000FBE8091A10849
:10429000882309F4CDCF0E944B1390E090930E0138
:1042A00080930D010E9432140E944114E0E5F8E071
:1042B000119298E0EE35F907D9F70E944814E0E52D
:1042C000F8E081918111A0C128E0EE35F207C9F72D
:1042D000AFCF0E944814A9E6B8E0E0E5F8E000E0BE
:1042E00010E0302F21919D919227A1F180E0992437
:1042F0009394492F492151F161968FAF619762964E
:104300003FAF6297292181E009F480E063968FAF87
:1043100063970E9478298160782F65969FAF8EAF52
:10432000659761964FAD619762965FAD62976396B0
:104330006FAD639765968FAD65970E94981BF801E6
:10434000E759F74F80819826908229C08F5F990C9A
:10435000863079F60F5F1F4F0E30110509F0C1CF7F
:104360006696EFAE66976796EFAE679768961FAE54
:1043700068970E9478298160782F6A969FAF8EAFE8
:104380006A9766964FAD669767965FAD6797689632
:104390006FAD68976A968FAD6A970E94981B80915F
:1043A0006508909166080E944E299C0190916408CE
:1043B000992321F02431310508F478C080916008F8
:1043C0001091610881110BC011113DC1209162084B
:1043D000211139C120916308211135C167C09F3F68
:1043E00019F09F5F90936408181624F40E949D288A
:1043F000809360088091600887FF05C00E949D2817
:10440000819580936008111624F40E949D28809362
:1044100061088091610887FF05C00E949D288195F1
:1044200080936108309160083323E1F020916108A6
:104430002223C1F045EB3403C0011124992319F064
:104440009093600803C081E08093600835EB2303FC
:10445000C0011124992319F09093610803C081E0F1
:104460008093610880916208181624F40E947B28CA
:10447000809362088091620887FF05C00E947B28B4
:1044800081958093620880916308181624F40E9435
:104490007B28809363088091630887FF05C00E9492
:1044A0007B288195809363080E9484290E949F1C29
:1044B00090916708891721F00E949F1C80936708DC
:1044C0008091A208843009F0B3CE8093E9008091F6
:1044D000E80082FFADCE8091E80085FF21C00E94F8
:1044E000D92F81111BC000E410E0CE0101964C01D0
:1044F00008C08091F100F40181934F01015011092E
:1045000069F08091E80085FDF4CF8091E8008B7719
:104510008093E8000E94D92F882399F391E001C08D
:1045200090E08091E8008B778093E800992309F46C
:104530007FCE1981111114C080917D08882351F11B
:1045400010927D0881E080937C0822961FAE22970E
:1045500023961FAE23972496FFAE249763E06DC089
:104560001130C1F422961FAE229723961FAF2397D6
:104570008CE0E0E9F2E0D60101900D928A95E1F736
:104580006096FFAE60976FE0CE018F5B9F4F0E94F9
:10459000DE274ECE80917C08882391F1123019F0ED
:1045A000133091F045C06091770870917808809140
:1045B000790890917A080E94A52A22961FAE229728
:1045C00023961FAF239714C08A81813039F040F0C1
:1045D000823071F581E080937B0802C010927B08E5
:1045E00022961FAE229723964FAE239780917B0889
:1045F00024968FAF24972596FFAE259764E01DC0C3
:104600002296EFAE229718C079BC69BC09B400FEAF
:10461000FDCF8091D8008F7D8093D8008091E000FD
:1046200082608093E0008091E00081FDFCCF00CEAD
:1046300081E022968FAF229761E0CE018F5B9F4F82
:104640000E94DE27F5CD9F3F09F0CBCEDCCE9F92B6
:10465000AF92BF92CF92DF92EF92FF920F931F9390
:10466000CF93DF936C0180911A01C82FCC0FCC0F30
:10467000C80F15E01C0F113308F010E36091BA0861
:10468000669566958091AE089091AF080E943B1E9A
:10469000D82F80E48D0F0E94C01D90E8F92EF80EEF
:1046A0008D2F0E94C01D20E8922E980EC11700F594
:1046B000AC2EB12CF501E05BFC4F908180911B0189
:1046C0008923A1F06091B7087091B8088091B9086A
:1046D000ED2E0C2F292D4F2DF60109950E94451E18
:1046E000462F282F672FC5010E94FB1CCF5FDECF0E
:1046F00081E0103308F080E0DF91CF911F910F919E
:10470000FF90EF90DF90CF90BF90AF909F90089573
:104710006F927F928F929F92AF92BF92CF92DF92D1
:10472000EF920F931F93CF93DF933C0180911A0177
:10473000C82FCC0FCC0FC80FD5E0DC0FD13308F059
:10474000D0E36091BA0866958091AE089091AF0869
:104750000E943B1E182FCD1708F044C08C2E912CC0
:10476000F401E05BFC4F908180911B018923C1F132
:10477000F401EE0FFF1FE051FD4FC080D12C80E708
:10478000C81AD108F401EE0FFF1FEF50FD4FA080B3
:10479000B12CE0E2AE1AB108CC9C9001CD9C300D5A
:1047A000300D1124AA9CC001AB9C900D900D1124DA
:1047B000820F931F0E94E11D082F6091B70870912E
:1047C000B8088091B908E12E9501A601F301099579
:1047D0000E94451E462F282F672FC4010E94FB1CF4
:1047E000CF5FB9CF81E0D03308F080E0DF91CF9187
:1047F0001F910F91EF90DF90CF90BF90AF909F905F
:104800008F907F906F900895CF92DF92EF92FF92FA
:104810000F931F93CF93DF936C0180911A01C82FE0
:10482000CC0FCC0FC80FD5E0DC0FD13308F0D0E3AC
:104830006091BA0866958091AE089091AF080E9489
:104840003B1E182FCD1778F5EC2EF12CF701E05B0D
:10485000FC4F908180911B01892319F1F701EE0F24
:10486000FF1FEF50FD4F208130E020523109F7014A
:10487000EE0FFF1FE051FD4F408150E040575109BE
:104880006091B7087091B8088091B908012FF601BE
:1048900009950E94451E462F282F672FC7010E94A9
:1048A000FB1CCF5FCFCF81E0D03308F080E0DF91F9
:1048B000CF911F910F91FF90EF90DF90CF900895CF
:1048C000DF92EF92FF920F931F93CF93DF938C01B0
:1048D00080911A01C82FCC0FCC0FC80FD5E0DC0F88
:1048E000D13308F0D0E36091BA086695669580915F
:1048F000AE089091AF080E943B1ED82ECD17F0F461
:10490000EC2EF12CF701E05BFC4F908180911B01B4
:10491000892391F06091B7087091B8088091B90827
:104920002D2D4C2FF80109950E94451E462F282F4A
:10493000672FC7010E94FB1CCF5FE0CF81E0D0331F
:1049400008F080E0DF91CF911F910F91FF90EF90E1
:10495000DF900895EF92FF920F931F93CF93DF9311
:104960007C018B010E94D92F811119C0E70101152B
:104970001105A1F08091E80085FD0AC08091E80052
:104980008E778093E8000E94D92F882381F307C097
:1049900089918093F10001501109E9CF80E0DF9106
:1049A000CF911F910F91FF90EF900895F90122810F
:1049B000A091AC08B091AD08211103C0A817B907A8
:1049C000C9F086E04802A0011124CD01841B950B9B
:1049D0006817790779F086E001900D928A95E1F7E2
:1049E0008091AC089091AD08480F591F5093AD08C5
:1049F0004093AC0808951F93CF93DF93CDB7DEB7F4
:104A0000AA970FB6F894DEBF0FBECDBFE4EAF8E078
:104A10008091F100819328E0EC3AF207C9F7809188
:104A2000A5088930B9F150F4823009F4A5C083306B
:104A300009F45FC0813009F0EEC00CC08B3009F47E
:104A400070C008F488C0823409F4AEC0853409F41B
:104A5000C5C0E1C08091A408813A09F0DCC0809112
:104A6000E800877F8093E8008091A8089091A908CA
:104A7000892B21F460E280E898E003C060E080E0E8
:104A800090E070E00E94FD318091E8008B77809388
:104A9000E800C1C08091A408813209F0BCC08091B7
:104AA000A8089091A908029708F0B5C08091E80085
:104AB000877F8093E8008091E80082FD05C08091A7
:104AC000A2088111F8CFA7C02091F3008091F200D5
:104AD00090E0922B029729F48091F1008B7F813036
:104AE00021F48091F10080937F088091E8008B771A
:104AF00058C08091A408813A09F08DC08091A8081F
:104B00009091A908892B09F086C08091E800877FE1
:104B10008093E8008091E80080FFFCCF809119012C
:104B20003BC08091A408813209F075C08091A8082B
:104B30009091A908892B09F06EC08091E800877FC9
:104B40008093E8000E940C308091A60880931901A0
:104B50000E94242F60C08091A408813209F05BC0BC
:104B60008091E800877F8093E8000E940C3080915C
:104B7000A70880937E084FC08091A408813A09F06D
:104B80004AC08091E800877F8093E8008091E80028
:104B900080FFFCCF80917E088093F1008091E80037
:104BA0008E778093E8002FC08091A408803C99F50F
:104BB0008091A8089091A908029741F58091A608D4
:104BC0009091A708892B11F58091E800877F809349
:104BD000E8006BE170E08BE49CE013C08091A408D6
:104BE000803CC9F48091A8089091A908079771F4B6
:104BF0008091E800877F8093E80062EB70E089E9AC
:104C00009BE00E949C310E940C3005C08091EB001B
:104C100080628093EB008091E80083FFA4C18091C3
:104C2000A4089091A508492F50E04A30510508F09A
:104C30009AC1FA01E656FF4F0C945036803821F0A5
:104C4000823809F090C108C08091A0089091A10815
:104C5000992389F082600FC08091A8088F708730F7
:104C600008F081C18093E9008091EB0085FB8827E3
:104C700080F91092E9009091E800977F9093E80006
:104C80008093F1001092F10033C1282F2D7F09F09D
:104C90006AC1882319F0823061F065C18091A6084D
:104CA000813009F060C1933009F080E08093A10861
:104CB0002EC08091A60881112AC08091A8088F700B
:104CC0002FEF280F263008F04EC18093E900209185
:104CD000EB0020FF1CC0933021F48091EB00806238
:104CE00014C09091EB0090619093EB0021E030E0D4
:104CF000A90102C0440F551F8A95E2F74093EA00CC
:104D00001092EA008091EB0088608093EB00109293
:104D1000E9008091E800877FEEC0811124C11091E5
:104D2000A6081F778091E3008078812B8093E300B1
:104D30008091E800877F8093E8000E940C3080918A
:104D4000E80080FFFCCF8091E30080688093E3005F
:104D5000111102C082E001C083E08093A20803C168
:104D60008058823008F0FFC08091A6089091A70873
:104D70008C3D53E0950779F583E08A838AE2898345
:104D80004FB7F894DE01139620E03EE051E2E32FA6
:104D9000F0E050935700E49120FF03C0E295EF70DC
:104DA0003F5FEF708E2F90E0EA3010F0C79601C0A1
:104DB000C0968D939D932F5F243149F74FBF80910B
:104DC000E800877F8093E8006AE270E0CE010196F8
:104DD0000E94FD317BC04091A8085091A908292F5D
:104DE00033272330310511F168F42130310509F4FE
:104DF000C9C02230310509F0B6C062E570E087E62F
:104E00009DE05DC02132310509F43BC022323105FD
:104E100009F444C02F30310509F0A5C0E9EFFDE0E9
:104E2000E4916E2F70E087EF9DE045C099278130B7
:104E30009105B9F070F082309105D9F0039709F02F
:104E400092C0EBECFDE0E4916E2F70E08BEC9DE006
:104E500032C0E3EFFDE0E4916E2F70E083EF9DE060
:104E60002AC0E9EEFDE0E4916E2F70E089EE9DE04E
:104E700022C0E1EDFDE0E4916E2F70E081ED9DE058
:104E80001AC04115510509F482C04130510509F09D
:104E90006AC069E070E082E99DE011C041155105EA
:104EA00009F47AC04130510509F05DC060EC70E052
:104EB00087E69CE004C06115710509F454C0209197
:104EC000E800277F2093E8000E949C318091E80051
:104ED0008B778093E80047C0803809F044C0809108
:104EE000E800877F8093E8008091A3088093F10019
:104EF0008091E8008E778093E8000E940C3033C0E8
:104F0000811131C08091A6089091A7089927029736
:104F100054F58091E800877F8093E8001091A608FF
:104F20001093A3080E940C30111106C08091E30079
:104F300087FD02C081E001C084E08093A20842E0C6
:104F400061EC81E00E942B3042E261EC82E00E9441
:104F50002B3042E361EC83E00E942B3042E360ECB3
:104F600084E00E942B308091E80083FF1AC080917A
:104F7000E800877F8093E8008091EB008062809357
:104F8000EB000FC062E170E089EB9DE098CF69E033
:104F900070E089E79DE093CF60E470E087E29DE0F8
:104FA0008ECFAA960FB6F894DEBF0FBECDBFDF91AD
:104FB000CF911F91089580917F0808952091A208B4
:104FC000243099F423E02093E90070E040E050E0C1
:104FD0000E94AA24882321F010927C0810927D0858
:104FE0008091E8008E778093E8000895803F39F43F
:104FF0008091610887FF6CC01092610869C0813F91
:1050000029F4809161081816BCF362C09091600881
:10501000823F29F497FF5CC01092600859C0833F1B
:1050200019F41916CCF354C0893F41F480916208F9
:1050300018160CF04DC0109262084AC08A3F29F43D
:105040008091620887FF44C0F6CF8B3F39F480918E
:10505000630887FF3DC0109263083AC08C3F29F473
:10506000809163081816BCF333C0843F21F480910B
:105070005F088E7F17C0853F21F480915F088D7F88
:1050800011C0863F21F480915F088B7F0BC0873F62
:1050900021F480915F08877F05C0883F31F48091BB
:1050A0005F088F7E80935F0813C08D3F21F480914D
:1050B0001F098E7F0BC08E3F21F480911F098D7FC9
:1050C00005C08F3F29F480911F098B7F80931F09B2
:1050D0008091600881110EC08091610881110AC021
:1050E00080916208811106C080916308811102C01D
:1050F00010926408089580911F0980FD16C081FDFB
:1051000016C082FD18C080916408882391F088320F
:1051100090F428E0829FC001112468E270E00E94B0
:105120003C36862F672B29F007C082E0089584E083
:10513000089581E0089588E0089580911F0980FD19
:1051400017C081FD17C082FD19C0809164088823B3
:1051500099F08C3398F423E2829FC00111246CE310
:1051600070E00E943C36862F672B49F481E0089559
:1051700088E0089581E1089585E0089583E2089527
:10518000803F21F40E949D28819504C0813F29F42D
:105190000E949D28809361080895823F21F40E9417
:1051A0009D28819504C0833F29F40E949D28809307
:1051B00060080895893F19F40E947B2805C08A3F42
:1051C00031F40E947B2881958093620808958B3F7B
:1051D00021F40E947B28819504C08C3F29F40E9411
:1051E0007B28809363080895843F21F480915F08B1
:1051F000816017C0853F21F480915F08826011C0F3
:10520000863F21F480915F0884600BC0873F21F4C2
:1052100080915F08886005C0883F31F480915F0805
:10522000806180935F0808958D3F21F480911F096C
:1052300081600BC08E3F21F480911F09826005C000
:105240008F3F29F480911F09846080931F0908957E
:1052500078941F920F920FB60F9211248F939F9301
:10526000AF93BF9380911B0990911C09A0911D09D8
:10527000B0911E090196A11DB11D80931B09909349
:105280001C09A0931D09B0931E09BF91AF919F9176
:105290008F910F900FBE0F901F901895CF92DF92B5
:1052A000EF92FF920F931F932FB7F89440911B0931
:1052B00050911C0960911D0970911E092FBF6A0150
:1052C0007B01EE24FF248C0120E030E0C016D106E3
:1052D000E206F30610F4415051099A01281B390BDC
:1052E000C9011F910F91FF90EF90DF90CF9008952B
:1052F0002FB7F89480911B0990911C09A0911D096A
:10530000B0911E092FBF0895E0914D08F0914E080D
:10531000309749F082E080935E080480F581E02DAB
:105320008EE598E009950E9478299093660880930D
:10533000650808951F920F920FB60F9211248F9354
:105340009F93AF93BF9380914F08811113C08091B9
:105350001B0990911C09A0911D09B0911E0941964D
:10536000A11DB11D80931B0990931C09A0931D09D9
:10537000B0931E09BF91AF919F918F910F900FBE77
:105380000F901F901895209119012223C9F02091A8
:105390004B0827FF15C0262F2695269526952E31DA
:1053A000C8F4FC01E20FF11D677081E090E001C0DC
:1053B000880F6A95EAF78095928189238283089500
:1053C000FC0106962281621301C012823196E81711
:1053D000F907C1F70895209119012223C1F0209106
:1053E0004B0827FF14C0262F2695269526952E318B
:1053F00030F5FC01E20FF11D677081E090E001C023
:10540000880F6A95EAF79281892B82830895FC01BF
:1054100032962FEF30E04191641789F02F3F19F455
:10542000411101C0232F3F5F3630A9F72F3F39F0DC
:10543000FC01E20FF11D27FDFA956283089508959E
:10544000CF9384E090E00E944434C82F81E290E042
:105450000E9444342C2F30E0A901582BCA01CF916F
:1054600008956FEE7EEF80E090E00E94863460E069
:1054700082E090E00E94683460E083E090E00E9467
:105480006834109217091092180910921909109295
:105490001A0960E084E090E00E94683460E081E2F4
:1054A00090E00E94683460E085E090E00E946834FB
:1054B00060E086E090E00E9468346FEF87E090E063
:1054C0000E94683440E050E0BA0188E090E00E9419
:1054D0007A3460E08DE090E00E94683440E050E073
:1054E000BA0188E190E00E947A3460E087E190E0C0
:1054F0000E94683440E050E0BA018CE190E00E94E4
:105500007A3460E080E290E00E94683410923908BA
:1055100010923A0810923B0810923C0884E0806197
:10552000809339084091390850913A0860913B08BE
:1055300070913C088FE090E00E947A3440E050E0A7
:10554000BA0183E190E00C947A34CF92DF92EF922B
:10555000FF926C01EE24FF24C114D104E104F10494
:1055600021F0C701B60120E101C020E0C72ED82EEE
:10557000E92EFF24C114D104E104F10419F0285FDD
:10558000C701B6016B017C0154E0F694E794D7940F
:10559000C7945A95D1F7C114D104E104F10419F06C
:1055A0002C5FC701B6016B017C0142E0F694E794E1
:1055B000D794C7944A95D1F7C114D104E104F104FA
:1055C00019F02E5FC701B601DC01CB01B695A79596
:1055D00097958795892B8A2B8B2B09F02F5F822F2C
:1055E000FF90EF90DF90CF90089580911609811180
:1055F0001092160908959091150980911409892B2C
:1056000020911309982F922B9093BB088091160933
:105610008823D9F0892B8093BB08809119018823B6
:1056200031F080914B0887FF02C08EE101C086E017
:10563000EDEBF8E090E0815028F021912223D9F39E
:105640009F5FF9CF91110E94F52AE0914D08F091EA
:105650004E083097A9F080911901882359F0809164
:105660004B0887FF07C08091BB088093BC0885E08A
:105670008093BB080280F381E02D8BEB98E00994C6
:105680000895BF92CF92DF92EF92FF920F931F93F4
:10569000CF93DF938C01C0907708D0907808E0908A
:1056A0007908F0907A088091170990911809A091D3
:1056B0001909B0911A09C82AD92AEA2AFB2ACFE186
:1056C000D0E0D701C6010C2E04C0B695A7959795DA
:1056D00087950A94D2F780FD04C0219790F7B12CEA
:1056E00007C0BC2EB8018C2F0E9462110197A9F34C
:1056F0008B2DDF91CF911F910F91FF90EF90DF9055
:10570000CF90BF900895CF93DF93EC010E94412B7F
:10571000BE010E946211DF91CF910895292F220FBF
:10572000920F990F890F682F669566956695982F49
:10573000977085E0689FB001112440E050E080E060
:10574000FB01E40FF51FE552F74F208130E0092EF1
:1057500002C0369527950A94E2F721703327042E6C
:1057600001C0220F0A94EAF7822B4F5F5F4F45304A
:10577000510531F70895292F220F920F990F890FA4
:10578000E82FE695E695E695877051E001C0550F44
:105790008A95EAF785E0E89FF0011124E552F74F7A
:1057A00020E030E070E04081CB01022E02C09695EF
:1057B00087950A94E2F78170819584278523842751
:1057C00081932F5F3F4F2530310569F708950F937F
:1057D0001F9341E050E060E070E004C0440F551FAB
:1057E000661F771F8A95D2F7409550956095709502
:1057F0008091770890917808A0917908B0917A0803
:105800008A019B01082319232A233B23C901B801DC
:105810001F910F910C948F2C209112098095822357
:1058200080931209982F977079F430E0482F082E52
:10583000000C550B2417350739F08595859585950E
:105840000E94E72B1092120908950F931F9341E0D5
:1058500050E060E070E004C0440F551F661F771FE2
:105860008A95D2F78091770890917808A09179086D
:10587000B0917A088A019B01082B192B2A2B3B2B0C
:10588000C901B8011F910F910C948F2C60E070E05A
:10589000CB010C948F2C0E94832B292F2F70E92F82
:1058A000E295EF704E2F50E0FA013297EE30F1059D
:1058B000B8F4EC55FF4F0C945036803F99F018F433
:1058C000883E70F40FC0843F59F40CC0883E50F0FD
:1058D000813F31F407C0822F86958695869508957D
:1058E00080E0089581E00895109214091092130940
:1058F0000E94FB2AEEE5F8E086E0DF011D928A9522
:10590000E9F71092640810921F090E94842980E030
:1059100090E00E94891C80E090E00C94731CCF9270
:10592000DF92EF92FF92CF93DF9300D000D0CDB7FC
:10593000DEB70E9410136B017C0180917B088823E5
:1059400019F080917C0802C080E090E080FF0FC0D9
:10595000198282E08A83C701B6010E94A52A8B833F
:105960008EEF8C8364E0CE0101960E94DE27C09208
:105970007708D0927808E0927908F0927A080E942D
:10598000742C0F900F900F900F90DF91CF91FF909C
:10599000EF90DF90CF9008956093170970931809E6
:1059A0008093190990931A090C94742C80915909C9
:1059B00090912809891719F08F5F8770FBCF0895A0
:1059C000CF938091270982958F7009F05FC08091F5
:1059D0002409882309F45AC080915909B0912809F3
:1059E00070912209A091230940912509509126091F
:1059F00091E07F3F09F090E0692FC6E08B1709F432
:105A000045C04115510521F0AF3F21F020E003C012
:105A100021E001C0262F90E020FD35C0C89FF00195
:105A2000C99FF00D1124E75DF64F21812A132BC089
:105A30002081271328C02281211125C02381348190
:105A40002417350710F421503109241B350B283C4D
:105A50003105C8F4209127092F7020612093270970
:105A600026E0289FF001299FF00D1124E25DF64FFA
:105A700080818F708061808382E299E00E94370785
:105A8000CF910C94D62C01968770B8CFCF91089502
:105A9000AF92BF92CF92DF92EF92FF920F931F933C
:105AA000CF93DF93CDB7DEB761970FB6F894DEBF23
:105AB0000FBECDBF8C0185E0F801DE011D9601907F
:105AC0000D928A95E1F7D8013C9111962C9111978E
:105AD0001296EC905091220960912309809125093A
